:100000000C9412090C942D090C942D090C942D09B3
:100010000C942D090C942D090C942D090C942D0988
:100020000C942D090C942D090C94450F0C94A10FE0
:100030000C942D090C942D090C942D090C942D0968
:100040000C942D090C942D090C942D090C942D0958
:100050000C942D090C942D090C942D090C942D0948
:100060000C942D090C942D090C942D090C942D0938
:100070000C942D090C942D090C942D090C942D0928
:100080000C942D090C942D090C942D090C942D0918
:100090000C942D090C942D090C942D090C942D0908
:1000A0000C942D090C942D090C942D09960D9E0D80
:1000B000A40DAA0DB00DB60DBC0DC20D0000770E3B
:1000C000770E770E0000770E770E770E770E770E8D
:1000D000770E770E770E0000770E770E770E770E7D
:1000E000770E0000000000000000770E770E770EFC
:1000F000770E770E770E770E770E770E770E770ED8
:10010000770E770E770E770E770E770E770E770EC7
:10011000770E770E770E770E770E770E00000000C1
:10012000770E770E770E770E770E770E770E770EA7
:10013000770E770E770E770E770E770E770E770E97
:10014000770E770E770E770E770E770E770E770E87
:10015000770E770E770E770E770E770E770E770E77
:10016000770E770E0000770E770E770E00008E0E5A
:100170008E0E8E0E8E0E0000770E770E770E00001C
:10018000770E000000000000770E00000000000065
:100190000000770E0000770E770E770E770E770E41
:1001A000770E770E770E770E770E770E0000770EAC
:1001B000770E770E770E770E0000770E770E770E9C
:1001C000770E0000000000000000770E770E770E1B
:1001D000770E770E770E770E770E770E770E00007C
:1001E000770E770E0000770E770E770E770E770E6C
:1001F000770E770E770E770E770E00000000770EE1
:1002000000000000770E770E770E770E0000770E55
:10021000770E770E0000770E770E770E770E770E3B
:10022000770E770E770E0000770E770E770E770E2B
:10023000770E0000000000000000770E770E770EAA
:10024000770E770E770E770E770E770E770E770E86
:10025000770E770E770E770E770E770E770E770E76
:10026000770E770E770E770E770E770E0000000070
:10027000770E770E770E770E770E770E770E770E56
:10028000770E770E770E770E770E770E770E770E46
:10029000770E770E770E770E770E770E770E770E36
:1002A000770E770E770E770E770E770E770E770E26
:1002B000770E770E00000000000000000000000034
:1002C000000000000000000000000000000000002E
:1002D000000000000000000000000000000000001E
:1002E000000000000000000000000000000000000E
:1002F00000000000000000000000000000000000FE
:100740000000000000000000000000000000770E24
:10075000770E770EA40E770E770E770E770E770E44
:10076000770E770E770E0000770E770E770E770EE6
:10077000770E0000000000000000770E770E770E65
:10078000770E770E770E770E770E770E770E770E41
:10079000770E770E770E770E770E770E770E770E31
:1007A000770E770E770E770E770E770E000000002B
:1007B000770E770E770E770E770E770E770E770E11
:1007C000770E770E770E770E770E770E770E770E01
:1007D000770E770E770E770E770E770E770E770EF1
:1007E000770E770E770E770E770E770E770E770EE1
:1007F000770E770E0000770E770E770EA80E8E0E0E
:100800008E0E8E0E8E0EBC0E770E770E770E0000BB
:10081000770E000000000000770E000000000000CE
:100820000000770E0000770E770E770E770E770EAA
:10083000770E770E770E770E770E770E0000770E15
:10084000770E770E770E770E0000770E770E770E05
:10085000770E0000000000000000770E770E770E84
:10086000770E770E770E770E770E770E770E0000E5
:10087000770E770E0000770E770E770E770E770ED5
:10088000770E770E770E770E770E0000A60E770E96
:1008900000000000770E770E770E770E0000770EBF
:1008A000770E770E7B0D770E770E770E770E770E1D
:1008B000770E770E770E0000770E770E770E770E95
:1008C000770E0000000000000000770E770E770E14
:1008D000770E770E770E770E770E770E770E770EF0
:1008E000770E770E770E770E770E770E770E770EE0
:1008F000770E770E770E770E770E770E00000000DA
:10090000770E770E770E770E770E770E770E770EBF
:10091000770E770E770E770E770E770E770E770EAF
:10092000770E770E770E770E770E770E770E770E9F
:10093000770E770E770E770E770E770E770E770E8F
:10094000770E770E0000000000000000000000009D
:100950000000000000000000000000000000000097
:100960000000000000000000000000000000000087
:100970000000000000000000000000000000000077
:100980000000000000000000000000000000000067
:100DD00000000000000000000000000000E2E02C25
:100DE000014A4D4E4B4028E4E6004C453E3B3A005C
:100DF0000000005051524F2AE133140D0E1B313CBC
:100E000005101A191DE135041208180C0000070B13
:100E10001711162D2B343637131C2F30090A0615DF
:100E20000F38291E1F2021223D3F23242526272E4F
:100E300000E2E02C02000000000028E4E2004C0088
:100E400000003A00000000620063582AE168696A05
:100E50006B7F817700595A5B58E10042434445005B
:100E60000000005C5D5E57562B3E3F40410080769F
:100E7000005F60615738293A3B3C3D000153000058
:100E80005455562E00E2E02C004A4D4E4B4028E4CB
:100E9000E6004C453E3B3A000000005051524F2ABC
:100EA000E11D1B061905313C1110363738E53504B4
:100EB0001607090A00000B0D0E0F33342B141A0805
:100EC00015172F301C180C12132D291E1F2021223C
:100ED0003D3F23242526272E0000000000000000AF
:100EE0000000000000000000000000000000000002
:100EF00000000000000000000000000000000000F2
:100F000000000000000000000000000000000000E1
:100F100000000000000000000000000000000000D1
:1011200000000000000100000C121200020000ABE1
:10113000112200220000CD113F00210000BD110945
:1011400000030000A71104010309048D1118020314
:10115000090455113636034500720067006F0044DC
:10116000006F00780020006500720067006F006E5D
:10117000006F006D006900630020006B006500795E
:101180000062006F006100720064000000180375C7
:10119000006E0073007000650063006900660069FE
:1011A0000065006400000004030904090222000134
:1011B0000100C032090400000103010100092111EE
:1011C000010001223F000705830308000105010912
:1011D00006A10175019508050719E029E715002505
:1011E00001810295017508810395057501050819AE
:1011F000012905910295017503910395067508155E
:101200000025680507190029688100C01201000245
:1012100000000020501D28600001010200010000B4
:1012200001C1060011241FBECFEFDAE0DEBFCDBF43
:1012300011E0A0E0B1E0EAE0F2E202C005900D9218
:10124000AA31B107D9F712E0AAE1B1E001C01D92BD
:10125000A636B107E1F742D0D6C70C940000209122
:1012600062028091650290913802E0913702222358
:1012700081F02EE0E29FF001112424E5929FE00D21
:10128000F11D1124E80FF11DEE0FFF1FE45BF84F75
:101290000FC02EE0E29FF001112424E5929FE00DA3
:1012A000F11D1124E80FF11DEE0FFF1FE454FF4F55
:1012B00085919491009711F0FC0109940895E091B3
:1012C0001A01E81748F0F0E0E81BF109EE0FFF1FE4
:1012D000E75CFD4F8081089580E0089527D18CE080
:1012E00090E0909389008093880090938B00809386
:1012F0008A0090938D0080938C00259A269A279AD5
:1013000072D588D58823E9F38FE790E09093890020
:10131000809388002FE782E490E121508040904044
:10132000E1F700C000008FE790E090938B0080937E
:101330008A002FE782E490E1215080409040E1F75D
:1013400000C000008FE790E090938D0080938C00A8
:101350002FE782E490E1215080409040E1F700C007
:1013600000002598269827988FE790E090938900B1
:101370008093880090938B0080938A0090938D00D7
:1013800080938C003EE0F32E809114019091150122
:10139000209116013091170130931501209314010B
:1013A0009093170180931601CDD01092E2018091A5
:1013B000E201863008F040C010926302009163029F
:1013C0001091E2010E30A0F5E0911601F0911701A5
:1013D000F19EC0011124800F911DE80FF91F20819B
:1013E00020936202E0911401F0911501E80FF91FBA
:1013F0003081309361022317A9F0EC01CD51DE4F0B
:10140000222331F080E05BDF80933802888303C0C1
:1014100088818093380210933702009365021092FE
:1014200064021DDF809163028F5F80936302C6CFE9
:101430001F5F1093E201BBCFF0D48FE19EE40197D0
:10144000F1F700C000008091D80180FF02C0259A0A
:1014500001C025988091D80181FF02C0269A01C061
:1014600026988091D80182FF02C0279A01C0279850
:101470008091D8018091D80187CFE1E0F1E021E0AF
:1014800030E09191911113C0F901E050FF4F91E0CC
:101490009083E0911A01EF5FE0931A01F0E0EE0F04
:1014A000FF1FE75CFD4F80832183822F08952F5F0C
:1014B0003F4F2431310529F780E00895CF93DF9322
:1014C00020911A0191E0C82FD0E0C050DF4F2917BA
:1014D00040F1E92FF0E0EE0FFF1FE75CFD4F318197
:1014E00038131DC0E92FF0E0921781F0DF01AA0F39
:1014F000BB1FA55CBD4F3C91EE0FFF1FE75CFD4F8E
:10150000308311963C9131839F5FECCFEE0FFF1F2C
:10151000E75CFD4F1082118218822FEF290F9F5F29
:10152000D6CF20931A01DF91CF910895C5D08111B4
:1015300005C01AD0882321F082E0089581E0089543
:1015400080E00895CF93DF93EC017FD1811106C035
:10155000CE0135D0882321F082E003C081E001C0B4
:1015600080E0DF91CF910895CF9337D380E454D3B7
:10157000C82F811120C080E04FD380E84DD38FEF7A
:101580004BD342D32AD380E447D3C82F811113C051
:101590008CE042D380E840D38FEF3ED335D31DD3C8
:1015A00080E43AD3C82F811106C084E135D38FEF90
:1015B00033D38FEF31D328D38C2FCF9108958F92CF
:1015C0009F92BF92CF92DF92EF92FF920F931F9361
:1015D000CF93DF931F92CDB7DEB77C01C5DFB82E66
:1015E000882369F096E0F70187E011928150E9F7CE
:1015F00091508EE0E80EF11C9111F5CF4FC000E044
:1016000010E0CC24C394D12CE8D280E405D382E14D
:1016100003D3C601002E01C0880F0A94EAF7809513
:10162000FBD2F2D2DAD280E4F7D283E1F5D2D5D27E
:1016300081E4F2D2CE0101960DD3E6D28981882EC3
:10164000912C60E070E045E050E0D701A00FB11FA1
:10165000FD01E60FF71F9401042E02C03595279572
:101660000A94E2F72170332781E028272170208334
:1016700041505109625F7F4F4F3F8FEF580741F74D
:101680000F5F1F4F0730110509F0BECFA6D280E4CF
:10169000C3D282E1C1D28FEFBFD2B6D28B2D0F90D1
:1016A000DF91CF911F910F91FF90EF90DF90CF903E
:1016B000BF909F908F900895E1E6F0E080E88083EE
:1016C000108256985E9824982C98259826982798EA
:1016D00089EA8093800089E08093810075D23F98E9
:1016E00085E08A95F1F70000579885E08A95F1F733
:1016F0000000549885E08A95F1F70000559885E040
:101700008A95F1F700006E9885E08A95F1F7000060
:10171000479A85E08A95F1F700005F9A85E08A95FF
:10172000F1F700005C9A85E08A95F1F700005D9A78
:1017300085E08A95F1F70000769A85E08A95F1F7C1
:101740000000879885E08A95F1F70000869885E08B
:101750008A95F1F70000859885E08A95F1F70000F9
:10176000849885E08A95F1F70000819885E08A9554
:10177000F1F70000809885E08A95F1F70000209845
:1017800085E08A95F1F70000219885E08A95F1F7C8
:101790000000229885E08A95F1F70000239885E003
:1017A0008A95F1F70000529885E08A95F1F70000DC
:1017B000539885E08A95F1F700003E9885E08A9578
:1017C000F1F700008F9A85E08A95F1F700008E9A74
:1017D00085E08A95F1F700008D9A85E08A95F1F70A
:1017E00000008C9A85E08A95F1F70000899A85E0DF
:1017F0008A95F1F70000889A85E08A95F1F7000054
:10180000289885E08A95F1F70000299885E08A9567
:10181000F1F700002A9885E08A95F1F700002B98EF
:1018200085E08A95F1F700005A9885E08A95F1F7EE
:1018300000005B9885E08A95F1F70000469885E006
:101840008A95F1F7000080E00895FC01209A85E078
:101850008A95F1F700008FB18095881F8827881F2F
:1018600087838FB191E086FB882780F98927858B54
:101870008FB185FB882780F9892783A38FB1829553
:101880008170892781AB8FB186958170892787AF59
:101890008FB1DF01AA5BBF4F8170892717968C93A8
:1018A000209885E08A95F1F70000219A85E08A95D5
:1018B000F1F700008FB18095881F8827881F8087E7
:1018C0008FB186FB882780F98927868B8FB185FBAE
:1018D000882780F9892784A38FB182958170892711
:1018E00082AB8FB1DF01A05CBF4F869581708927E5
:1018F0008C938FB1DF01AA5BBF4F81708927189647
:101900008C93219885E08A95F1F70000229A85E072
:101910008A95F1F700008FB18095881F8827881F6E
:1019200081878FB186FB882780F98927878B8FB1C4
:1019300085FB882780F9892785A38FB182958170DF
:10194000892783AB8FB1DF01AF5BBF4F8695817075
:1019500089278C938FB1DF01AA5BBF4F81708927E4
:1019600019968C93229885E08A95F1F70000239AC6
:1019700085E08A95F1F700008FB18095881F882750
:10198000881F82878FB186FB882780F98927808FFF
:101990008FB185FB882780F9892786A38FB182952F
:1019A0008170892784AB8FB1DF01AE5BBF4F869515
:1019B000817089278C938FB1DF01AA5BBF4F817043
:1019C00089271A968C93239885E08A95F1F7000071
:1019D000529A85E08A95F1F700008FB18095881FB3
:1019E0008827881F83878FB186FB882780F98927FE
:1019F000818F8FB185FB882780F9892787A38FB1D5
:101A000082958170892785AB8FB1DF01AD5BBF4FB8
:101A10008695817089278C938FB1DF01AA5BBF4FB8
:101A2000817089271B968C93529885E08A95F1F7EF
:101A30000000539A85E08A95F1F700008FB18095F8
:101A4000881F8827881F84878FB186FB882780F9A5
:101A50008927828F8FB185FB882780F9892780A706
:101A60008FB182958170892786AB8FB1DF01AC5B26
:101A7000BF4F8695817089278C938FB1DF01AA5B58
:101A8000BF4F817089271C968C93539885E08A9567
:101A9000F1F700003E9A85E08A95F1F700008FB1DA
:101AA0008095881F8827881F85878FB186FB8827A8
:101AB00080F98927838F8FB185FB882780F9892753
:101AC00081A78FB182958170892787AB8FB1DF01A4
:101AD000AB5BBF4F8695817089278C938FB1EA5B92
:101AE000FF4F8170892785873E9885E08A95F1F7B9
:101AF000000080E008952AD12DD12ED12FD130D1F0
:101B000031D132D133D134D135C1962F662309F486
:101B10005AC0462F50E0FA01E05EF109E830F105C5
:101B2000B8F5EA5AFF4F9091E00167C3882311F09E
:101B3000916001C09E7F9093E0010895882311F089
:101B40009260F9CF9D7FF7CF882311F09460F3CF97
:101B50009B7FF1CF882311F09860EDCF977FEBCF7B
:101B6000882311F09061E7CF9F7EE5CF882311F0A5
:101B70009062E1CF9F7DDFCF882311F09064DBCFAF
:101B80009F7BD9CF882311F09068D5CF9F77D3CF93
:101B9000EAEDF1E020E030E04081882339F04111A6
:101BA0000CC0F901E652FE4F90830895491305C019
:101BB000F901E652FE4F108208952F5F3F4F319694
:101BC0002630310549F70895E9EBF0E080818C7FFC
:101BD000808388E48093B800089584EA8093BC00F1
:101BE0008091BC0087FFFCCF8091B900887F88304E
:101BF00049F08091B900887F803121F08091B9004F
:101C0000887F089580E0089584E98093BC008091E6
:101C1000BC0084FDFCCF08958093BB0084E88093D2
:101C2000BC008091BC0087FFFCCF8091B900887F09
:101C3000883171F08091B900887F883249F08091B5
:101C4000B900887F803421F08091B900887F0895A1
:101C500080E0089524EC2093BC002091BC0027FF75
:101C6000FCCF2091BB00FC0120838091B900887FCC
:101C7000803521F08091B900887F089580E0089533
:101C8000CF93DF93C82FD0E0CC0FDD1FCD53DE4FB5
:101C9000888114DC19821882DF91CF9108951F93F7
:101CA000CF93DF939091650220913802E091370243
:101CB0003EE0E39FF001112434E5239FE00DF11D88
:101CC0001124E90FF11DE452F24F1491C82FD0E016
:101CD000CC0FDD1FCD53DE4F8881F0DB812FCDDBB4
:101CE00090E099838883DF91CF911F91089580912F
:101CF000650290913802E09137022EE0E29FF001F8
:101D0000112424E5929FE00DF11D1124E80FF11D2F
:101D1000E452F24F649180916202F7CE80916402A6
:101D20008F5F80936402CBDA8093380290916502D2
:101D3000E09137022EE0E29FF0011124E90FF11D3E
:101D4000ED51FE4F80838BCA81E0A9CF81E098CF0F
:101D500082E0A5CF82E094CF83E092CF84E090CF61
:101D600085E08ECF86E08CCF87E08ACF88E088CF71
:101D700089E086CF8AE084CFF89481E08093E00008
:101D800080E28093D8001092C9008FE19EE4019711
:101D9000F1F700C000001DBA109268001CBC10BE14
:101DA0001FBA10927A0010926E0010926F0010927B
:101DB0007100109272001092C900ECEBF0E01082FA
:101DC00014B817B81AB81DB810BA108215B818B8D8
:101DD0001BB81EB811BA0C94003F08958091E8001A
:101DE00080FFFCCF089581E08093D70080EA809344
:101DF000D80082E189BD09B400FEFDCF80E980935F
:101E0000D8001092E0001092E1018CE08093E20093
:101E1000789408958091E10108958091E101811104
:101E200002C08FEF08958FB7F89493E09093E90084
:101E30009091E4009E5C23E03091E80035FD0EC0F7
:101E40008FBF8091E101882361F38091E4008917BD
:101E500041F38FB7F8942093E900EECF9091E00121
:101E60009093F1001092F100EAEDF1E091919093DE
:101E7000F10091E0E03EF907C9F79AE39093E8009A
:101E80001092D9018FBF80E008951F920F920FB674
:101E90000F9211248F939F93EF93FF938091E10012
:101EA0001092E10083FF0FC01092E90091E090933F
:101EB000EB001092EC0092E29093ED0098E090938A
:101EC000F0001092E10182FF33C08091E10188238C
:101ED00079F180911801882359F18091D7018F5FA2
:101EE0008093D701837021F583E08093E90080918E
:101EF000E80085FF1DC08091D9018F5F8093D901D3
:101F000090911801891314C01092D9018091E001B9
:101F10008093F1001092F100EAEDF1E0819180935D
:101F2000F10081E0E03EF807C9F78AE38093E8001A
:101F3000FF91EF919F918F910F900FBE0F901F9087
:101F400018951F920F920FB60F921124EF92FF92E5
:101F50000F931F932F933F934F935F936F937F93B1
:101F60008F939F93AF93BF93EF93FF93CF93DF93A1
:101F70001F92CDB7DEB71092E9008091E80083FF91
:101F800021C19091F1008091F1003091F1002091F8
:101F9000F100E32EF12CF22A0091F1002091F100E2
:101FA00010E0122B2091F1006091F10032EF30939C
:101FB000E800863009F046C037E084E291E1FC0198
:101FC000459154914E155F0539F4FC0132964591C7
:101FD00054914017510721F00796315081F7F2C014
:101FE000FC01349645915491FC013696849130E081
:101FF000362B2F3F310519F010F02FEF30E0281766
:1020000008F4822F3EEF9091E800292F2570D9F334
:1020100092FDDBC0982F813208F090E2FA01292F5F
:10202000222331F064916093F10021503196F8CF72
:10203000490F511D891B3093E8008111E4CF903284
:1020400011F3C3C0853049F48EEF8093E800C6DEFB
:102050008E2D80688093E300B8C0893041F59111DE
:1020600046C0E092E1018EEF8093E80041E08EE10E
:1020700092E14093E9009C012F5F3F4FFC01549196
:102080005093EB00552361F0F90124912093EC006B
:102090009C012D5F3F4FFC01329684918093ED00AF
:1020A0004F5F453011F0C901E4CF8EE141C0883067
:1020B00039F4903809F041C091DE8091E10160C0AF
:1020C000811115C099838ADE9981923851F4009369
:1020D000E9008091EB0085FB882780F91092E900E8
:1020E00001C080E08093F1001092F10067C0282FBA
:1020F0002D7F213011F5923001F5EF2809F062C0F3
:102100000F779FEF900F943008F05CC09EEF909394
:10211000E8000093E900833009F454C089E180931A
:10212000EB0081E090E0002E01C0880F0A94EAF7EE
:102130008093EA001092EA0048C0012B09F042C0E7
:10214000913A09F5813089F449DE8091E00180936C
:10215000F1001092F100EAEDF1E081918093F1003D
:1021600081E0E03EF807C9F729C0823021F436DE6D
:102170008091180105C0833029F530DE8091190166
:102180008093F1001BC09132E9F4893061F48091B1
:10219000E80082FFFCCF8091F1008093D8018BEFA3
:1021A0008093E8000BC08A3029F4F0921801109255
:1021B000D90104C08B3031F4E09219018EEF809385
:1021C000E80003C081E28093EB000F90DF91CF9194
:1021D000FF91EF91BF91AF919F918F917F916F91FF
:1021E0005F914F913F912F911F910F91FF90EF9031
:1021F0000F900FBE0F901F901895EE0FFF1F0590C8
:0A220000F491E02D0994F894FFCF4B
:10220A0001000000000000000000000000000000C3
:0A221A00000000001B016F017D01B0
:00000001FF
